:020000040000FA
:1000000008800020650000006D0000007500000001
:100010007D000000850000008D0000000000000051
:10002000000000000000000000000000950000003B
:100030009D00000000000000A5000000ED0200008F
:10004000B5000000BD000000C5000000CD000000AC
:10005000DFF80CD000F04AF800480047D103000058
:10006000088000201B4880471B48004700B500F06F
:10007000F3F800BD00B500F077F800BD00B500F062
:10008000EAF800BD00B500F043F800BD00B500F08F
:1000900074F900BD00B500F00EF900BD00B500F028
:1000A00038F800BD00B500F0E3F800BD00B500F081
:1000B0000FF900BD00B500F047F900BD00B500F034
:1000C0005BF900BD00B500F03DF900BD00B500F0E2
:1000D0004DF800BDFD02000051000000421C10F868
:1000E000011B0029FBD1801A70470000064C074D08
:1000F00006E0E06840F0010394E8070098471034F8
:10010000AC42F6D3FFF7A8FFFC0400001C0500007A
:100110007047704710B58B780A88012B04D0022BEA
:1001200007D0042B0DD108E04469E4431443446133
:1001300007E004691443046103E0846914438461A3
:1001400000BF00BF10BD0246002013680B400BB17A
:10015000012000E00020704742688A4342607047F7
:1001600042680A43426070477047000070B508A4B7
:10017000204600F085F9082000F068F9064D00BF20
:10018000281EA5F10105FBD100F060F970BD00004B
:1001900061726D434D330000C0CF6A0070B50446F4
:1001A0000026002510214FF0A040FFF7D5FF00BF2B
:1001B0002EE004F0800028B180214FF0A040FFF72E
:1001C000CFFF04E080214FF0A040FFF7C5FF60069D
:1001D000040E032000F0F1F820214FF0A040FFF7BB
:1001E000BFFF022000F0E9F86806050E40214FF03D
:1001F000A040FFF7A8FF08B145F00105012000F07D
:10020000DCF820214FF0A040FFF7A6FF701CC6B21B
:10021000082ECEDB10214FF0A040FFF7A1FF2846AB
:1002200070BD70B504460D46164610214FF0A04033
:10023000FFF792FF07E0701E86B22878FFF7AEFF47
:100240002070641C6D1C002EF5D110214FF0A040D1
:10025000FFF786FF70BD7047704700F01F02012155
:1002600091404209920002F1E022C2F80011704769
:10027000704708B5B020ADF8000002208DF80200EC
:1002800069464FF0A040FFF745FF4020ADF8000061
:1002900001208DF8020069464FF0A040FFF73AFFB9
:1002A00010214FF0A040FFF75BFF20214FF0A0404E
:1002B000FFF752FF08BD70474FF0E021086170471B
:1002C0004FF0E021486170474FF0E02188617047AE
:1002D00010B50020FFF7F0FF0348006840F0007001
:1002E0000149086010BD000004ED00E0024800680C
:1002F000401C014908607047000000201FB50F48EE
:100300000F4908604FF0FF30FFF7A7FF0120FFF70C
:10031000A4FF0320FFF7A1FF094800684FF4E13173
:10032000B0FBF1F4002000900190029001231A46E6
:1003300021460390980700F0B4F81FBD80F0FA0240
:10034000040000207047000010B54FF0804000F01E
:1003500083F80446204600F079F806A000F090F8F3
:1003600021464FF0804000F081F80A21480700F054
:100370007DF810BD4D333A007047704702E008C861
:10038000121F08C1002AFAD170477047002001E00F
:1003900001C1121F002AFBD1704700B502460020A0
:1003A000FFF78AFF1046FFF78BFF0020FFF78CFF57
:1003B0000720FFF781FF30BF00BD00B5034602E014
:1003C0003220FFF7EAFF181EA3F10103F8D100BDA8
:1003D0008EB0194800684FF47A72B0FBF2F1481EF3
:1003E000B0F1807F00D31BE0481E4FF0E022506147
:1003F00050170722002807DA53071E0E0F4B00F094
:100400000F052D1F5E5503E053071D0E0C4B1D54A9
:1004100000BF00204FF0E02290610720106100BF74
:1004200008A4FFF76BFFFFF724FF04E00622214634
:1004300001A8FFF7F6FEF9E70400002018ED00E040
:1004400000E400E061726D434D3300000149086033
:100450007047000000100040014600BF486800F0EF
:1004600002000028FAD00868C0B2704704E0426871
:1004700002F0010202B900E0F9E700BF0160704735
:1004800070B505462846FFF729FE0646002405E01C
:10049000295D4FF08040FFF7E9FF641CB442F7D3B9
:1004A00070BD2DE9F04104460D46DDE908C8DDE9DF
:1004B000066700210AB141F001010BB141F00201D0
:1004C0000EB141F004010FB141F00801BCF1000F81
:1004D00001D041F01001B8F1000F01D041F020012E
:1004E0000020A0602561A160606800F00C0010B1E0
:1004F0000120BDE8F0810020FBE700001C050000A2
:1005000000000020080000007C030000240500001B
:1005100008000020008000008C03000000000000A4
:0405200080F0FA026B
:040000050000006592
:00000001FF
